:100000000C9435000C945D000C945D000C945D0024
:100010000C945D000C945D000C945D000C945D00EC
:100020000C945D000C945D000C945D000C945D00DC
:100030000C945D000C945D000C945D000C945D00CC
:100040000C9455070C945D000C9490020C94D30210
:100050000C945D000C945D000C945D000C945D00AC
:100060000C945D000C945D00920311241FBECFEF31
:10007000D8E0DEBFCDBF11E0A0E0B1E0E6EDF0E1F9
:1000800002C005900D92AC35B107D9F722E0ACE57E
:10009000B1E001C01D92A731B207E1F710E0C5E35E
:1000A000D0E004C02197FE010E940808C433D107A4
:1000B000C9F70E9448070C9469080C94000080E678
:1000C00091E00E94F601892B99F18EE591E00E9462
:1000D00073018230910579F018F4019789F01AC004
:1000E0008330910519F0049759F014C08FE591E021
:1000F0000E94BC001DC08DE591E00E94840118C0E3
:1001000081E080935C0164E070E08EE591E00E9404
:100110005E010EC067E070E08EE591E00E945E0136
:1001200040E150E066E071E080E691E00E94CD039E
:1001300080E0089540E052EC61E070E080E691E0FC
:100140000E940E0380915C01811113C061E070E098
:100150008EE591E00E945E0128EE33E040E050E041
:1001600061E070E08EE591E00E942E010E945F0048
:10017000E9CF08950C945F000F931F93CF93DF9303
:10018000CDB7DEB72F970FB6F894DEBF0FBECDBF49
:10019000CE010F960E947701182FCE010F960E9474
:1001A0007701082F67E070E0CE010F960E945E0194
:1001B00067E171E0CE0108960E946304612F110F80
:1001C000770B4AE0CE0101960E94BE04BE016F5F2C
:1001D0007F4FCE0108960E941905CE0101960E941C
:1001E000F50367E271E0CE0108960E9420054AE01F
:1001F000602FCE0101960E949004BE016F5F7F4F79
:10020000CE0108960E941905CE0101960E94F503C1
:100210006AE0CE0108960E942F05688579856115F0
:10022000710561F0FB0101900020E9F73197AF0102
:10023000461B570B80E691E00E94CD03CE01089645
:100240000E94F50381E02F960FB6F894DEBF0FBE33
:10025000CDBFDF91CF911F910F9108958F929F9203
:10026000AF92BF92CF92DF92EF92FF92CF93DF9344
:10027000EB0169017A010E949F074B015C0180E656
:1002800091E00E94F6018C179D076CF40E949F0775
:10029000DC01CB0188199909AA09BB098C159D05B8
:1002A000AE05BF0560F3DF91CF91FF90EF90DF9037
:1002B000CF90BF90AF909F908F900895CF93DF9392
:1002C00000D0CDB7DEB77A83698341E050E0BE014C
:1002D0006F5F7F4F80E691E00E94CD030F900F90FB
:1002E000DF91CF91089580E691E00C94220224E6FC
:1002F00030E040E050E061E070E00E942E0180E6D6
:1003000091E00E94220208950F931F93CF93DF93F1
:10031000CDB7DEB72F970FB6F894DEBF0FBECDBFB7
:10032000CE010F960E947701182FCE010F960E94E2
:100330007701082F67E070E0CE010F960E945E0102
:1003400060E371E0CE0108960E946304612F110FF3
:10035000770B4AE0CE0101960E94BE04BE016F5F9A
:100360007F4FCE0108960E941905CE0101960E948A
:10037000F50360E471E0CE0108960E9420054AE092
:10038000602FCE0101960E949004BE016F5F7F4FE7
:10039000CE0108960E941905CE0101960E94F50330
:1003A0006AE0CE0108960E942F056885798561155F
:1003B000710561F0FB0101900020E9F73197AF0171
:1003C000461B570B80E691E00E94CD03CE010896B4
:1003D0000E94F50381E02F960FB6F894DEBF0FBEA2
:1003E000CDBFDF91CF911F910F910895FC0124851E
:1003F0003585F901E05CFF4F808191813296208143
:100400003181821B930B8F7399270895DC011C9611
:10041000ED91FC911D97DF01A05CBF4F2D913C91A8
:10042000119712968D919C9111972817390739F0E1
:100430008D919C91E80FF91F808190E008958FEFD6
:100440009FEF0895FC01A485B585FD01E05CFF4F99
:10045000208131813296808191812817390779F086
:1004600080819181A80FB91F8C91208131812F5FEC
:100470003F4F2F7333273183208390E008958FEF10
:100480009FEF0895FC0181A1882329F0A489B589F3
:100490008C9186FFFBCF11A208950F931F93CF93EA
:1004A000DF93FC01A685B7858D01005C1F4FE80135
:1004B0008881998101968F739927AD014E5B5F4FBB
:1004C000EA012881398128173907D1F3E801288109
:1004D0003981A20FB31F6C93A685B785A05CBF4F6F
:1004E00011969C938E93A689B7892C9181E090E018
:1004F000078C02C0880F991F0A94E2F7822B8C9315
:1005000081E081A30488F589E02D80818064808367
:1005100081E090E0DF91CF911F910F9108950895B0
:100520001F920F920FB60F9211242F934F935F9348
:100530008F939F93EF93FF938091C00082FD1CC027
:100540002091C60080910602909107024091080216
:100550005091090201968F7399274817590771F036
:10056000E0910602F0910702EA53FE4F2083909338
:1005700007028093060202C08091C600FF91EF91AE
:100580009F918F915F914F912F910F900FBE0F9080
:100590001F90189580E691E00E94F601892B11F0DA
:1005A0000C948F0208951F920F920FB60F92112490
:1005B0002F933F938F939F93EF93FF932091C201CB
:1005C0003091C3018091C4019091C501281739076A
:1005D00031F48091C1008F7D8093C10014C0E091FF
:1005E000C401F091C501EE57FE4F20818091C401F6
:1005F0009091C50101968F7399279093C5018093BF
:10060000C4012093C600FF91EF919F918F913F917C
:100610002F910F900FBE0F901F901895CF92DF92E1
:10062000EF92FF92CF93DF93EC016A017B014115BA
:10063000514E6105710509F1EC89FD8981E090E079
:1006400008A002C0880F991F0A94E2F7808360E037
:1006500079E08DE390E0A70196010E94E607DA01B8
:10066000C9010197A109B109B695A79597958795F5
:100670009C01211580E13807A8F0EC89FD891082E2
:1006800060E874E88EE190E0A70196010E94E60719
:10069000DA01C9010197A109B109B695A795979506
:1006A00087959C01E889F9893083EA89FB89208351
:1006B00019A2EE89FF89408181E090E09C010C8CB9
:1006C00002C0220F331F0A94E2F7242B2083EE8905
:1006D000FF8940819C010D8C02C0220F331F0A94B8
:1006E000E2F7242B2083EE89FF8940819C010E8C48
:1006F00002C0220F331F0A94E2F7242B2083EE89D5
:10070000FF8920810F8C02C0880F991F0A94E2F79D
:10071000809582238083DF91CF91FF90EF90DF90CF
:10072000CF900895E0E6F1E01382128288EE93E024
:10073000A0E0B0E084839583A683B7838FE491E043
:100740009183808386EC91E09587848782E891E0AD
:100750009787868785EC90E0918B808B84EC90E086
:10076000938B828B80EC90E0958B848B81EC90E076
:10077000978B868B82EC90E0918F808F86EC90E057
:10078000938F828F84E0848F83E0858F87E0868FCC
:1007900085E0878F81E080A30895CF92DF92EF926A
:1007A000FF920F931F93CF93DF936C01EB017B01BB
:1007B000E40EF51E00E010E0CE15DF0561F0699152
:1007C000D601ED91FC910190F081E02DC6010995D3
:1007D000080F191FF1CFC801DF91CF911F910F9121
:1007E000FF90EF90DF90CF900895FC018081918180
:1007F0000C94DA05CF93DF93EC01888199810097FF
:1008000011F00E94DA05198218821D821C821B8257
:100810001A82DF91CF9108950F931F93CF93DF93A7
:10082000EC018B016F5F7F4F888199810E94630685
:10083000009731F0998388831B830A8381E001C08C
:1008400080E0DF91CF911F910F910895CF93DF93B7
:10085000EC0188819981892B29F08A819B818617F7
:10086000970760F4CE010E940C04882341F08C812C
:100870009D81892B19F4E881F981108281E0DF9153
:10088000CF910895EF92FF920F931F93CF93DF9331
:10089000EC017B018A01BA010E942604811104C087
:1008A000CE010E94FA0307C01D830C83B701888123
:1008B00099810E941708CE01DF91CF911F910F916E
:1008C000FF90EF900895FC01118210821382128232
:1008D0001582148216826115710551F0FB01019099
:1008E0000020E9F73197AF01461B570B0C944204E7
:1008F0000895CF93DF93EC016115710559F0FB0169
:1009000001900020E9F73197AF01461B570B0E9479
:10091000420402C00E94FA03CE01DF91CF910895F4
:100920000F931F93CF93DF93CDB7DEB729970FB601
:10093000F894DEBF0FBECDBF8C01862FF801118267
:1009400010821382128215821482168250E0BE0138
:100950006F5F7F4F90E00E943408BE016F5F7F4F52
:10096000C8010E94790429960FB6F894DEBF0FBE25
:10097000CDBFDF91CF911F910F9108950F931F93DA
:10098000CF93DF93CDB7DEB762970FB6F894DEBF93
:100990000FBECDBF8C01CB01F801118210821382F2
:1009A000128215821482168250E0BE016F5F7F4F63
:1009B0000E941E08BE016F5F7F4FC8010E9479042C
:1009C00062960FB6F894DEBF0FBECDBFDF91CF9118
:1009D0001F910F910895EF92FF920F931F93CF9362
:1009E000DF936115710511F480E01CC041155105BC
:1009F000C1F07B01EC018C819D818A01080F191FD8
:100A0000B801CE010E942604882371F32881398120
:100A10008C819D81B701820F931F0E9417081D834F
:100A20000C8381E0DF91CF911F910F91FF90EF90A8
:100A30000895FB0144815581608171810C94EB0420
:100A40006115710551F0FB0101900020E9F7319724
:100A5000AF01461B570B0C94EB0480E00895CF9335
:100A6000DF9300D0CDB7DEB769831A8241E050E052
:100A7000BE016F5F7F4F0E94EB040F900F90DF91DC
:100A8000CF9108950F931F93CF93DF9382309105F9
:100A900010F482E090E0E0911502F091160220E05F
:100AA00030E0A0E0B0E0309719F14081518102813F
:100AB000138148175907C8F08417950769F41097F0
:100AC00031F012960C93129713961C9327C0009343
:100AD00015021093160222C02115310519F0421794
:100AE000530718F49A01BD01EF01DF01F801DBCFD4
:100AF00021153105F9F0281B390B2430310580F41C
:100B00008A819B816115710521F0FB0193838283AA
:100B100004C09093160280931502FE01329644C0E1
:100B2000FE01E20FF31F8193919322503109398323
:100B300028833AC02091130230911402232B41F4F0
:100B4000209102013091030130931402209313028B
:100B500020910001309101012115310541F42DB79B
:100B60003EB74091040150910501241B350BE091E3
:100B70001302F0911402E217F307A0F42E1B3F0BAF
:100B80002817390778F0AC014E5F5F4F24173507FF
:100B900048F04E0F5F1F509314024093130281934D
:100BA000919302C0E0E0F0E0CF01DF91CF911F917F
:100BB0000F910895CF93DF93009709F481C0FC0152
:100BC000329713821282A0911502B09116021097EB
:100BD00081F420813181820F931F20911302309183
:100BE00014022817390751F5F0931402E093130209
:100BF00067C0ED0120E030E0CE17DF0740F44A8106
:100C00005B819E0141155105F1F0EA01F5CFD383D7
:100C1000C28340815181840F951FC817D90759F4A9
:100C200088819981840F951F0296918380838A81A0
:100C30009B81938382832115310529F4F093160259
:100C4000E09315023DC0E901FB83EA834991599184
:100C5000C40FD51FEC17FD0761F480819181840FCB
:100C6000951F0296E90199838883828193819B83F2
:100C70008A83E0E0F0E012968D919C9113970097A3
:100C800019F0FD01DC01F7CF8D919C9111979D0129
:100C90002E5F3F4F820F931F209113023091140259
:100CA0002817390769F4309729F410921602109228
:100CB000150202C013821282B0931402A093130291
:100CC000DF91CF9108956F927F928F929F92AF9212
:100CD000BF92CF92DF92EF92FF920F931F93CF9329
:100CE000DF93009789F4CB01DF91CF911F910F9192
:100CF000FF90EF90DF90CF90BF90AF909F908F903C
:100D00007F906F900C944205FC01E60FF71F9C0149
:100D100022503109E217F30708F4A9C0EC01D90108
:100D20000D911C91119706171707B0F005301105AA
:100D300008F49BC0C80104978617970708F495C06C
:100D400002501109061B170B019311936D937C93AD
:100D5000CF010E94DA0589C05B01A01AB10A4C01DB
:100D6000800E911EA0911502B0911602612C712C7B
:100D7000E12CF12C109709F446C08D919C911197AC
:100D8000A815B905B1F56C0142E0C40ED11CCA1416
:100D9000DB0478F14C018A189B08640142E0C40E20
:100DA000D11C1296BC9012971396AC91B5E0CB165D
:100DB000D10440F0B282A38391828082D9016D93E5
:100DC0007C9309C00E5F1F4F800F911FF901918323
:100DD0008083EB2DFA2FE114F10431F0D701139643
:100DE000FC93EE93129741C0F0931602E093150224
:100DF0003CC06816790608F43C017D0112960D90FE
:100E0000BC91A02DB7CF8091130290911402881647
:100E10009906E1F466167706C8F480910001909176
:100E20000101009741F48DB79EB7409104015091A4
:100E30000501841B950BE817F907C8F4F093140219
:100E4000E0931302F901718360830FC0CB010E940C
:100E500042057C01009759F0A801BE010E940E08CE
:100E6000CE010E94DA05C70104C0CE0102C080E0B5
:100E700090E0DF91CF911F910F91FF90EF90DF9065
:100E8000CF90BF90AF909F908F907F906F9008957C
:100E90000E94AB070E949A00CAECD2E00E94BA00FE
:100EA0002097E1F30E94CA02F9CF1F920F920FB66A
:100EB0000F9211242F933F938F939F93AF93BF93E0
:100EC00080910B0290910C02A0910D02B0910E0244
:100ED00030910A0223E0230F2D3720F40196A11D43
:100EE000B11D05C026E8230F0296A11DB11D209358
:100EF0000A0280930B0290930C02A0930D02B09310
:100F00000E0280910F0290911002A0911102B091F7
:100F100012020196A11DB11D80930F029093100241
:100F2000A0931102B0931202BF91AF919F918F9144
:100F30003F912F910F900FBE0F901F9018952FB7D4
:100F4000F89460910B0270910C0280910D029091C7
:100F50000E022FBF0895789484B5826084BD84B555
:100F6000816084BD85B5826085BD85B5816085BDA4
:100F7000EEE6F0E0808181608083E1E8F0E01082BD
:100F8000808182608083808181608083E0E8F0E0FE
:100F9000808181608083E1EBF0E0808184608083E8
:100FA000E0EBF0E0808181608083EAE7F0E080811F
:100FB000846080838081826080838081816080837F
:100FC0008081806880831092C1000895A1E21A2E6A
:100FD000AA1BBB1BFD010DC0AA1FBB1FEE1FFF1FDD
:100FE000A217B307E407F50720F0A21BB30BE40B2D
:100FF000F50B661F771F881F991F1A9469F7609574
:101000007095809590959B01AC01BD01CF0108952D
:10101000EE0FFF1F0590F491E02D0994FB01DC0118
:1010200002C001900D9241505040D8F70895FB0145
:10103000DC0101900D920020E1F708954532510541
:1010400020F4423010F00C942908FB011082CB01EF
:101050000895BB274A3031F4992322F4BDE29095DC
:1010600081959F4F0C9440084532510520F4423041
:1010700010F00C943F08FB011082CB010895BB27B0
:10108000FB015527AA27880F991FAA1FA41710F044
:10109000A41B83955051B9F7A05DAA3308F0A95D50
:1010A000A193009779F7B111B1931192CB010C94F0
:1010B0005908DC01FC01672F71917723E1F7329722
:1010C00004C07C916D9370836291AE17BF07C8F323
:0610D0000895F894FFCF23
:1010D60000001702800044656661756C74204D65DA
:1010E60073736167650A00496E204D6F746F722CC9
:1010F60020636D643A20002073706565643A2000B1
:10110600496E20536572766F2C20636D643A200019
:1011160020686F77206661723A2000000000004D5B
:0C11260002CD03F6012202060242020084
:00000001FF
